{"contracts/Calculator.sol":{"Calculator":{"abi":[{"anonymous":false,"inputs":[{"indexed":false,"internalType":"int256","name":"result","type":"int256"}],"name":"CalculationResult","type":"event"},{"inputs":[{"internalType":"int256","name":"a","type":"int256"},{"internalType":"int256","name":"b","type":"int256"}],"name":"add","outputs":[{"internalType":"int256","name":"","type":"int256"}],"stateMutability":"nonpayable","type":"function"},{"inputs":[{"internalType":"int256","name":"a","type":"int256"},{"internalType":"int256","name":"b","type":"int256"}],"name":"divide","outputs":[{"internalType":"int256","name":"","type":"int256"}],"stateMutability":"nonpayable","type":"function"},{"inputs":[{"internalType":"int256","name":"a","type":"int256"},{"internalType":"int256","name":"b","type":"int256"}],"name":"multiply","outputs":[{"internalType":"int256","name":"","type":"int256"}],"stateMutability":"nonpayable","type":"function"},{"inputs":[{"internalType":"int256","name":"a","type":"int256"},{"internalType":"int256","name":"b","type":"int256"}],"name":"subtract","outputs":[{"internalType":"int256","name":"","type":"int256"}],"stateMutability":"nonpayable","type":"function"}],"evm":{"bytecode":{"linkReferences":{},"object":"608060405234801561001057600080fd5b506106e7806100206000396000f3fe608060405234801561001057600080fd5b506004361061004c5760003560e01c80633c4308a814610051578063a5f3c23b14610081578063b93ea812146100b1578063f5984236146100e1575b600080fd5b61006b600480360381019061006691906102b2565b610111565b604051610078919061033d565b60405180910390f35b61009b600480360381019061009691906102b2565b610163565b6040516100a8919061033d565b60405180910390f35b6100cb60048036038101906100c691906102b2565b6101b5565b6040516100d8919061033d565b60405180910390f35b6100fb60048036038101906100f691906102b2565b610207565b604051610108919061033d565b60405180910390f35b60008082846101209190610487565b90507ff2d6c774b080911e1275ca033bfb31791e1e7220f0a3b4b646be5b9e1c3d7bc781604051610151919061033d565b60405180910390a18091505092915050565b60008082846101729190610389565b90507ff2d6c774b080911e1275ca033bfb31791e1e7220f0a3b4b646be5b9e1c3d7bc7816040516101a3919061033d565b60405180910390a18091505092915050565b60008082846101c4919061059e565b90507ff2d6c774b080911e1275ca033bfb31791e1e7220f0a3b4b646be5b9e1c3d7bc7816040516101f5919061033d565b60405180910390a18091505092915050565b60008082141561024c576040517f08c379a000000000000000000000000000000000000000000000000000000000815260040161024390610358565b60405180910390fd5b6000828461025a919061041d565b90507ff2d6c774b080911e1275ca033bfb31791e1e7220f0a3b4b646be5b9e1c3d7bc78160405161028b919061033d565b60405180910390a18091505092915050565b6000813590506102ac8161069a565b92915050565b600080604083850312156102c557600080fd5b60006102d38582860161029d565b92505060206102e48582860161029d565b9150509250929050565b6102f781610632565b82525050565b600061030a601083610378565b91507f4469766973696f6e206279207a65726f000000000000000000000000000000006000830152602082019050919050565b600060208201905061035260008301846102ee565b92915050565b60006020820190508181036000830152610371816102fd565b9050919050565b600082825260208201905092915050565b600061039482610632565b915061039f83610632565b9250817f7fffffffffffffffffffffffffffffffffffffffffffffffffffffffffffffff038313600083121516156103da576103d961063c565b5b817f80000000000000000000000000000000000000000000000000000000000000000383126000831216156104125761041161063c565b5b828201905092915050565b600061042882610632565b915061043383610632565b9250826104435761044261066b565b5b600160000383147f80000000000000000000000000000000000000000000000000000000000000008314161561047c5761047b61063c565b5b828205905092915050565b600061049282610632565b915061049d83610632565b9250827f7fffffffffffffffffffffffffffffffffffffffffffffffffffffffffffffff04821160008413600084131616156104dc576104db61063c565b5b817f800000000000000000000000000000000000000000000000000000000000000005831260008412600084131616156105195761051861063c565b5b827f800000000000000000000000000000000000000000000000000000000000000005821260008413600084121616156105565761055561063c565b5b827f7fffffffffffffffffffffffffffffffffffffffffffffffffffffffffffffff05821260008412600084121616156105935761059261063c565b5b828202905092915050565b60006105a982610632565b91506105b483610632565b9250827f8000000000000000000000000000000000000000000000000000000000000000018212600084121516156105ef576105ee61063c565b5b827f7fffffffffffffffffffffffffffffffffffffffffffffffffffffffffffffff0182136000841216156106275761062661063c565b5b828203905092915050565b6000819050919050565b7f4e487b7100000000000000000000000000000000000000000000000000000000600052601160045260246000fd5b7f4e487b7100000000000000000000000000000000000000000000000000000000600052601260045260246000fd5b6106a381610632565b81146106ae57600080fd5b5056fea2646970667358221220f2ffad4c3730c5b1b90fe76763f2f2a7957d3b58923f70d29b9bc583ccd3c5ef64736f6c63430008000033","opcodes":"PUSH1 0x80 PUSH1 0x40 MSTORE CALLVALUE DUP1 ISZERO PUSH2 0x10 JUMPI PUSH1 0x0 DUP1 REVERT JUMPDEST POP PUSH2 0x6E7 DUP1 PUSH2 0x20 PUSH1 0x0 CODECOPY PUSH1 0x0 RETURN INVALID PUSH1 0x80 PUSH1 0x40 MSTORE CALLVALUE DUP1 ISZERO PUSH2 0x10 JUMPI PUSH1 0x0 DUP1 REVERT JUMPDEST POP PUSH1 0x4 CALLDATASIZE LT PUSH2 0x4C JUMPI PUSH1 0x0 CALLDATALOAD PUSH1 0xE0 SHR DUP1 PUSH4 0x3C4308A8 EQ PUSH2 0x51 JUMPI DUP1 PUSH4 0xA5F3C23B EQ PUSH2 0x81 JUMPI DUP1 PUSH4 0xB93EA812 EQ PUSH2 0xB1 JUMPI DUP1 PUSH4 0xF5984236 EQ PUSH2 0xE1 JUMPI JUMPDEST PUSH1 0x0 DUP1 REVERT JUMPDEST PUSH2 0x6B PUSH1 0x4 DUP1 CALLDATASIZE SUB DUP2 ADD SWAP1 PUSH2 0x66 SWAP2 SWAP1 PUSH2 0x2B2 JUMP JUMPDEST PUSH2 0x111 JUMP JUMPDEST PUSH1 0x40 MLOAD PUSH2 0x78 SWAP2 SWAP1 PUSH2 0x33D JUMP JUMPDEST PUSH1 0x40 MLOAD DUP1 SWAP2 SUB SWAP1 RETURN JUMPDEST PUSH2 0x9B PUSH1 0x4 DUP1 CALLDATASIZE SUB DUP2 ADD SWAP1 PUSH2 0x96 SWAP2 SWAP1 PUSH2 0x2B2 JUMP JUMPDEST PUSH2 0x163 JUMP JUMPDEST PUSH1 0x40 MLOAD PUSH2 0xA8 SWAP2 SWAP1 PUSH2 0x33D JUMP JUMPDEST PUSH1 0x40 MLOAD DUP1 SWAP2 SUB SWAP1 RETURN JUMPDEST PUSH2 0xCB PUSH1 0x4 DUP1 CALLDATASIZE SUB DUP2 ADD SWAP1 PUSH2 0xC6 SWAP2 SWAP1 PUSH2 0x2B2 JUMP JUMPDEST PUSH2 0x1B5 JUMP JUMPDEST PUSH1 0x40 MLOAD PUSH2 0xD8 SWAP2 SWAP1 PUSH2 0x33D JUMP JUMPDEST PUSH1 0x40 MLOAD DUP1 SWAP2 SUB SWAP1 RETURN JUMPDEST PUSH2 0xFB PUSH1 0x4 DUP1 CALLDATASIZE SUB DUP2 ADD SWAP1 PUSH2 0xF6 SWAP2 SWAP1 PUSH2 0x2B2 JUMP JUMPDEST PUSH2 0x207 JUMP JUMPDEST PUSH1 0x40 MLOAD PUSH2 0x108 SWAP2 SWAP1 PUSH2 0x33D JUMP JUMPDEST PUSH1 0x40 MLOAD DUP1 SWAP2 SUB SWAP1 RETURN JUMPDEST PUSH1 0x0 DUP1 DUP3 DUP5 PUSH2 0x120 SWAP2 SWAP1 PUSH2 0x487 JUMP JUMPDEST SWAP1 POP PUSH32 0xF2D6C774B080911E1275CA033BFB31791E1E7220F0A3B4B646BE5B9E1C3D7BC7 DUP2 PUSH1 0x40 MLOAD PUSH2 0x151 SWAP2 SWAP1 PUSH2 0x33D JUMP JUMPDEST PUSH1 0x40 MLOAD DUP1 SWAP2 SUB SWAP1 LOG1 DUP1 SWAP2 POP POP SWAP3 SWAP2 POP POP JUMP JUMPDEST PUSH1 0x0 DUP1 DUP3 DUP5 PUSH2 0x172 SWAP2 SWAP1 PUSH2 0x389 JUMP JUMPDEST SWAP1 POP PUSH32 0xF2D6C774B080911E1275CA033BFB31791E1E7220F0A3B4B646BE5B9E1C3D7BC7 DUP2 PUSH1 0x40 MLOAD PUSH2 0x1A3 SWAP2 SWAP1 PUSH2 0x33D JUMP JUMPDEST PUSH1 0x40 MLOAD DUP1 SWAP2 SUB SWAP1 LOG1 DUP1 SWAP2 POP POP SWAP3 SWAP2 POP POP JUMP JUMPDEST PUSH1 0x0 DUP1 DUP3 DUP5 PUSH2 0x1C4 SWAP2 SWAP1 PUSH2 0x59E JUMP JUMPDEST SWAP1 POP PUSH32 0xF2D6C774B080911E1275CA033BFB31791E1E7220F0A3B4B646BE5B9E1C3D7BC7 DUP2 PUSH1 0x40 MLOAD PUSH2 0x1F5 SWAP2 SWAP1 PUSH2 0x33D JUMP JUMPDEST PUSH1 0x40 MLOAD DUP1 SWAP2 SUB SWAP1 LOG1 DUP1 SWAP2 POP POP SWAP3 SWAP2 POP POP JUMP JUMPDEST PUSH1 0x0 DUP1 DUP3 EQ ISZERO PUSH2 0x24C JUMPI PUSH1 0x40 MLOAD PUSH32 0x8C379A000000000000000000000000000000000000000000000000000000000 DUP2 MSTORE PUSH1 0x4 ADD PUSH2 0x243 SWAP1 PUSH2 0x358 JUMP JUMPDEST PUSH1 0x40 MLOAD DUP1 SWAP2 SUB SWAP1 REVERT JUMPDEST PUSH1 0x0 DUP3 DUP5 PUSH2 0x25A SWAP2 SWAP1 PUSH2 0x41D JUMP JUMPDEST SWAP1 POP PUSH32 0xF2D6C774B080911E1275CA033BFB31791E1E7220F0A3B4B646BE5B9E1C3D7BC7 DUP2 PUSH1 0x40 MLOAD PUSH2 0x28B SWAP2 SWAP1 PUSH2 0x33D JUMP JUMPDEST PUSH1 0x40 MLOAD DUP1 SWAP2 SUB SWAP1 LOG1 DUP1 SWAP2 POP POP SWAP3 SWAP2 POP POP JUMP JUMPDEST PUSH1 0x0 DUP2 CALLDATALOAD SWAP1 POP PUSH2 0x2AC DUP2 PUSH2 0x69A JUMP JUMPDEST SWAP3 SWAP2 POP POP JUMP JUMPDEST PUSH1 0x0 DUP1 PUSH1 0x40 DUP4 DUP6 SUB SLT ISZERO PUSH2 0x2C5 JUMPI PUSH1 0x0 DUP1 REVERT JUMPDEST PUSH1 0x0 PUSH2 0x2D3 DUP6 DUP3 DUP7 ADD PUSH2 0x29D JUMP JUMPDEST SWAP3 POP POP PUSH1 0x20 PUSH2 0x2E4 DUP6 DUP3 DUP7 ADD PUSH2 0x29D JUMP JUMPDEST SWAP2 POP POP SWAP3 POP SWAP3 SWAP1 POP JUMP JUMPDEST PUSH2 0x2F7 DUP2 PUSH2 0x632 JUMP JUMPDEST DUP3 MSTORE POP POP JUMP JUMPDEST PUSH1 0x0 PUSH2 0x30A PUSH1 0x10 DUP4 PUSH2 0x378 JUMP JUMPDEST SWAP2 POP PUSH32 0x4469766973696F6E206279207A65726F00000000000000000000000000000000 PUSH1 0x0 DUP4 ADD MSTORE PUSH1 0x20 DUP3 ADD SWAP1 POP SWAP2 SWAP1 POP JUMP JUMPDEST PUSH1 0x0 PUSH1 0x20 DUP3 ADD SWAP1 POP PUSH2 0x352 PUSH1 0x0 DUP4 ADD DUP5 PUSH2 0x2EE JUMP JUMPDEST SWAP3 SWAP2 POP POP JUMP JUMPDEST PUSH1 0x0 PUSH1 0x20 DUP3 ADD SWAP1 POP DUP2 DUP2 SUB PUSH1 0x0 DUP4 ADD MSTORE PUSH2 0x371 DUP2 PUSH2 0x2FD JUMP JUMPDEST SWAP1 POP SWAP2 SWAP1 POP JUMP JUMPDEST PUSH1 0x0 DUP3 DUP3 MSTORE PUSH1 0x20 DUP3 ADD SWAP1 POP SWAP3 SWAP2 POP POP JUMP JUMPDEST PUSH1 0x0 PUSH2 0x394 DUP3 PUSH2 0x632 JUMP JUMPDEST SWAP2 POP PUSH2 0x39F DUP4 PUSH2 0x632 JUMP JUMPDEST SWAP3 POP DUP2 PUSH32 0x7FFFFFFFFFFFFFFFFFFFFFFFFFFFFFFFFFFFFFFFFFFFFFFFFFFFFFFFFFFFFFFF SUB DUP4 SGT PUSH1 0x0 DUP4 SLT ISZERO AND ISZERO PUSH2 0x3DA JUMPI PUSH2 0x3D9 PUSH2 0x63C JUMP JUMPDEST JUMPDEST DUP2 PUSH32 0x8000000000000000000000000000000000000000000000000000000000000000 SUB DUP4 SLT PUSH1 0x0 DUP4 SLT AND ISZERO PUSH2 0x412 JUMPI PUSH2 0x411 PUSH2 0x63C JUMP JUMPDEST JUMPDEST DUP3 DUP3 ADD SWAP1 POP SWAP3 SWAP2 POP POP JUMP JUMPDEST PUSH1 0x0 PUSH2 0x428 DUP3 PUSH2 0x632 JUMP JUMPDEST SWAP2 POP PUSH2 0x433 DUP4 PUSH2 0x632 JUMP JUMPDEST SWAP3 POP DUP3 PUSH2 0x443 JUMPI PUSH2 0x442 PUSH2 0x66B JUMP JUMPDEST JUMPDEST PUSH1 0x1 PUSH1 0x0 SUB DUP4 EQ PUSH32 0x8000000000000000000000000000000000000000000000000000000000000000 DUP4 EQ AND ISZERO PUSH2 0x47C JUMPI PUSH2 0x47B PUSH2 0x63C JUMP JUMPDEST JUMPDEST DUP3 DUP3 SDIV SWAP1 POP SWAP3 SWAP2 POP POP JUMP JUMPDEST PUSH1 0x0 PUSH2 0x492 DUP3 PUSH2 0x632 JUMP JUMPDEST SWAP2 POP PUSH2 0x49D DUP4 PUSH2 0x632 JUMP JUMPDEST SWAP3 POP DUP3 PUSH32 0x7FFFFFFFFFFFFFFFFFFFFFFFFFFFFFFFFFFFFFFFFFFFFFFFFFFFFFFFFFFFFFFF DIV DUP3 GT PUSH1 0x0 DUP5 SGT PUSH1 0x0 DUP5 SGT AND AND ISZERO PUSH2 0x4DC JUMPI PUSH2 0x4DB PUSH2 0x63C JUMP JUMPDEST JUMPDEST DUP2 PUSH32 0x8000000000000000000000000000000000000000000000000000000000000000 SDIV DUP4 SLT PUSH1 0x0 DUP5 SLT PUSH1 0x0 DUP5 SGT AND AND ISZERO PUSH2 0x519 JUMPI PUSH2 0x518 PUSH2 0x63C JUMP JUMPDEST JUMPDEST DUP3 PUSH32 0x8000000000000000000000000000000000000000000000000000000000000000 SDIV DUP3 SLT PUSH1 0x0 DUP5 SGT PUSH1 0x0 DUP5 SLT AND AND ISZERO PUSH2 0x556 JUMPI PUSH2 0x555 PUSH2 0x63C JUMP JUMPDEST JUMPDEST DUP3 PUSH32 0x7FFFFFFFFFFFFFFFFFFFFFFFFFFFFFFFFFFFFFFFFFFFFFFFFFFFFFFFFFFFFFFF SDIV DUP3 SLT PUSH1 0x0 DUP5 SLT PUSH1 0x0 DUP5 SLT AND AND ISZERO PUSH2 0x593 JUMPI PUSH2 0x592 PUSH2 0x63C JUMP JUMPDEST JUMPDEST DUP3 DUP3 MUL SWAP1 POP SWAP3 SWAP2 POP POP JUMP JUMPDEST PUSH1 0x0 PUSH2 0x5A9 DUP3 PUSH2 0x632 JUMP JUMPDEST SWAP2 POP PUSH2 0x5B4 DUP4 PUSH2 0x632 JUMP JUMPDEST SWAP3 POP DUP3 PUSH32 0x8000000000000000000000000000000000000000000000000000000000000000 ADD DUP3 SLT PUSH1 0x0 DUP5 SLT ISZERO AND ISZERO PUSH2 0x5EF JUMPI PUSH2 0x5EE PUSH2 0x63C JUMP JUMPDEST JUMPDEST DUP3 PUSH32 0x7FFFFFFFFFFFFFFFFFFFFFFFFFFFFFFFFFFFFFFFFFFFFFFFFFFFFFFFFFFFFFFF ADD DUP3 SGT PUSH1 0x0 DUP5 SLT AND ISZERO PUSH2 0x627 JUMPI PUSH2 0x626 PUSH2 0x63C JUMP JUMPDEST JUMPDEST DUP3 DUP3 SUB SWAP1 POP SWAP3 SWAP2 POP POP JUMP JUMPDEST PUSH1 0x0 DUP2 SWAP1 POP SWAP2 SWAP1 POP JUMP JUMPDEST PUSH32 0x4E487B7100000000000000000000000000000000000000000000000000000000 PUSH1 0x0 MSTORE PUSH1 0x11 PUSH1 0x4 MSTORE PUSH1 0x24 PUSH1 0x0 REVERT JUMPDEST PUSH32 0x4E487B7100000000000000000000000000000000000000000000000000000000 PUSH1 0x0 MSTORE PUSH1 0x12 PUSH1 0x4 MSTORE PUSH1 0x24 PUSH1 0x0 REVERT JUMPDEST PUSH2 0x6A3 DUP2 PUSH2 0x632 JUMP JUMPDEST DUP2 EQ PUSH2 0x6AE JUMPI PUSH1 0x0 DUP1 REVERT JUMPDEST POP JUMP INVALID LOG2 PUSH5 0x6970667358 0x22 SLT KECCAK256 CALLCODE SELFDESTRUCT 0xAD 0x4C CALLDATACOPY ADDRESS 0xC5 0xB1 0xB9 0xF 0xE7 PUSH8 0x63F2F2A7957D3B58 SWAP3 EXTCODEHASH PUSH17 0xD29B9BC583CCD3C5EF64736F6C63430008 STOP STOP CALLER "},"methodIdentifiers":{"add(int256,int256)":"a5f3c23b","divide(int256,int256)":"f5984236","multiply(int256,int256)":"3c4308a8","subtract(int256,int256)":"b93ea812"}}}}}