{"contracts/Calculator.sol":{"Calculator":{"abi":[{"inputs":[{"internalType":"uint256","name":"a","type":"uint256"},{"internalType":"uint256","name":"b","type":"uint256"}],"name":"add","outputs":[{"internalType":"uint256","name":"","type":"uint256"}],"stateMutability":"pure","type":"function"},{"inputs":[{"internalType":"uint256","name":"a","type":"uint256"},{"internalType":"uint256","name":"b","type":"uint256"}],"name":"divide","outputs":[{"internalType":"uint256","name":"","type":"uint256"}],"stateMutability":"pure","type":"function"},{"inputs":[{"internalType":"uint256","name":"a","type":"uint256"},{"internalType":"uint256","name":"b","type":"uint256"}],"name":"multiply","outputs":[{"internalType":"uint256","name":"","type":"uint256"}],"stateMutability":"pure","type":"function"},{"inputs":[{"internalType":"uint256","name":"a","type":"uint256"},{"internalType":"uint256","name":"b","type":"uint256"}],"name":"subtract","outputs":[{"internalType":"uint256","name":"","type":"uint256"}],"stateMutability":"pure","type":"function"}],"evm":{"bytecode":{"linkReferences":{},"object":"608060405234801561001057600080fd5b50610504806100206000396000f3fe608060405234801561001057600080fd5b506004361061004c5760003560e01c8063165c4a16146100515780633ef5e44514610081578063771602f7146100b1578063f88e9fbf146100e1575b600080fd5b61006b60048036038101906100669190610203565b610111565b604051610078919061030e565b60405180910390f35b61009b60048036038101906100969190610203565b610127565b6040516100a8919061030e565b60405180910390f35b6100cb60048036038101906100c69190610203565b610180565b6040516100d8919061030e565b60405180910390f35b6100fb60048036038101906100f69190610203565b610196565b604051610108919061030e565b60405180910390f35b6000818361011f91906103c1565b905092915050565b60008282111561016c576040517f08c379a0000000000000000000000000000000000000000000000000000000008152600401610163906102ce565b60405180910390fd5b8183610178919061041b565b905092915050565b6000818361018e919061033a565b905092915050565b60008082116101da576040517f08c379a00000000000000000000000000000000000000000000000000000000081526004016101d1906102ee565b60405180910390fd5b81836101e69190610390565b905092915050565b6000813590506101fd816104b7565b92915050565b6000806040838503121561021657600080fd5b6000610224858286016101ee565b9250506020610235858286016101ee565b9150509250929050565b600061024c601583610329565b91507f5375627472616374696f6e20756e646572666c6f7700000000000000000000006000830152602082019050919050565b600061028c601083610329565b91507f4469766973696f6e206279207a65726f000000000000000000000000000000006000830152602082019050919050565b6102c88161044f565b82525050565b600060208201905081810360008301526102e78161023f565b9050919050565b600060208201905081810360008301526103078161027f565b9050919050565b600060208201905061032360008301846102bf565b92915050565b600082825260208201905092915050565b60006103458261044f565b91506103508361044f565b9250827fffffffffffffffffffffffffffffffffffffffffffffffffffffffffffffffff0382111561038557610384610459565b5b828201905092915050565b600061039b8261044f565b91506103a68361044f565b9250826103b6576103b5610488565b5b828204905092915050565b60006103cc8261044f565b91506103d78361044f565b9250817fffffffffffffffffffffffffffffffffffffffffffffffffffffffffffffffff04831182151516156104105761040f610459565b5b828202905092915050565b60006104268261044f565b91506104318361044f565b92508282101561044457610443610459565b5b828203905092915050565b6000819050919050565b7f4e487b7100000000000000000000000000000000000000000000000000000000600052601160045260246000fd5b7f4e487b7100000000000000000000000000000000000000000000000000000000600052601260045260246000fd5b6104c08161044f565b81146104cb57600080fd5b5056fea2646970667358221220b592f5d4409fbc889bed1769344adafcdef36a89455909a632ff4601d05722bd64736f6c63430008000033","opcodes":"PUSH1 0x80 PUSH1 0x40 MSTORE CALLVALUE DUP1 ISZERO PUSH2 0x10 JUMPI PUSH1 0x0 DUP1 REVERT JUMPDEST POP PUSH2 0x504 DUP1 PUSH2 0x20 PUSH1 0x0 CODECOPY PUSH1 0x0 RETURN INVALID PUSH1 0x80 PUSH1 0x40 MSTORE CALLVALUE DUP1 ISZERO PUSH2 0x10 JUMPI PUSH1 0x0 DUP1 REVERT JUMPDEST POP PUSH1 0x4 CALLDATASIZE LT PUSH2 0x4C JUMPI PUSH1 0x0 CALLDATALOAD PUSH1 0xE0 SHR DUP1 PUSH4 0x165C4A16 EQ PUSH2 0x51 JUMPI DUP1 PUSH4 0x3EF5E445 EQ PUSH2 0x81 JUMPI DUP1 PUSH4 0x771602F7 EQ PUSH2 0xB1 JUMPI DUP1 PUSH4 0xF88E9FBF EQ PUSH2 0xE1 JUMPI JUMPDEST PUSH1 0x0 DUP1 REVERT JUMPDEST PUSH2 0x6B PUSH1 0x4 DUP1 CALLDATASIZE SUB DUP2 ADD SWAP1 PUSH2 0x66 SWAP2 SWAP1 PUSH2 0x203 JUMP JUMPDEST PUSH2 0x111 JUMP JUMPDEST PUSH1 0x40 MLOAD PUSH2 0x78 SWAP2 SWAP1 PUSH2 0x30E JUMP JUMPDEST PUSH1 0x40 MLOAD DUP1 SWAP2 SUB SWAP1 RETURN JUMPDEST PUSH2 0x9B PUSH1 0x4 DUP1 CALLDATASIZE SUB DUP2 ADD SWAP1 PUSH2 0x96 SWAP2 SWAP1 PUSH2 0x203 JUMP JUMPDEST PUSH2 0x127 JUMP JUMPDEST PUSH1 0x40 MLOAD PUSH2 0xA8 SWAP2 SWAP1 PUSH2 0x30E JUMP JUMPDEST PUSH1 0x40 MLOAD DUP1 SWAP2 SUB SWAP1 RETURN JUMPDEST PUSH2 0xCB PUSH1 0x4 DUP1 CALLDATASIZE SUB DUP2 ADD SWAP1 PUSH2 0xC6 SWAP2 SWAP1 PUSH2 0x203 JUMP JUMPDEST PUSH2 0x180 JUMP JUMPDEST PUSH1 0x40 MLOAD PUSH2 0xD8 SWAP2 SWAP1 PUSH2 0x30E JUMP JUMPDEST PUSH1 0x40 MLOAD DUP1 SWAP2 SUB SWAP1 RETURN JUMPDEST PUSH2 0xFB PUSH1 0x4 DUP1 CALLDATASIZE SUB DUP2 ADD SWAP1 PUSH2 0xF6 SWAP2 SWAP1 PUSH2 0x203 JUMP JUMPDEST PUSH2 0x196 JUMP JUMPDEST PUSH1 0x40 MLOAD PUSH2 0x108 SWAP2 SWAP1 PUSH2 0x30E JUMP JUMPDEST PUSH1 0x40 MLOAD DUP1 SWAP2 SUB SWAP1 RETURN JUMPDEST PUSH1 0x0 DUP2 DUP4 PUSH2 0x11F SWAP2 SWAP1 PUSH2 0x3C1 JUMP JUMPDEST SWAP1 POP SWAP3 SWAP2 POP POP JUMP JUMPDEST PUSH1 0x0 DUP3 DUP3 GT ISZERO PUSH2 0x16C JUMPI PUSH1 0x40 MLOAD PUSH32 0x8C379A000000000000000000000000000000000000000000000000000000000 DUP2 MSTORE PUSH1 0x4 ADD PUSH2 0x163 SWAP1 PUSH2 0x2CE JUMP JUMPDEST PUSH1 0x40 MLOAD DUP1 SWAP2 SUB SWAP1 REVERT JUMPDEST DUP2 DUP4 PUSH2 0x178 SWAP2 SWAP1 PUSH2 0x41B JUMP JUMPDEST SWAP1 POP SWAP3 SWAP2 POP POP JUMP JUMPDEST PUSH1 0x0 DUP2 DUP4 PUSH2 0x18E SWAP2 SWAP1 PUSH2 0x33A JUMP JUMPDEST SWAP1 POP SWAP3 SWAP2 POP POP JUMP JUMPDEST PUSH1 0x0 DUP1 DUP3 GT PUSH2 0x1DA JUMPI PUSH1 0x40 MLOAD PUSH32 0x8C379A000000000000000000000000000000000000000000000000000000000 DUP2 MSTORE PUSH1 0x4 ADD PUSH2 0x1D1 SWAP1 PUSH2 0x2EE JUMP JUMPDEST PUSH1 0x40 MLOAD DUP1 SWAP2 SUB SWAP1 REVERT JUMPDEST DUP2 DUP4 PUSH2 0x1E6 SWAP2 SWAP1 PUSH2 0x390 JUMP JUMPDEST SWAP1 POP SWAP3 SWAP2 POP POP JUMP JUMPDEST PUSH1 0x0 DUP2 CALLDATALOAD SWAP1 POP PUSH2 0x1FD DUP2 PUSH2 0x4B7 JUMP JUMPDEST SWAP3 SWAP2 POP POP JUMP JUMPDEST PUSH1 0x0 DUP1 PUSH1 0x40 DUP4 DUP6 SUB SLT ISZERO PUSH2 0x216 JUMPI PUSH1 0x0 DUP1 REVERT JUMPDEST PUSH1 0x0 PUSH2 0x224 DUP6 DUP3 DUP7 ADD PUSH2 0x1EE JUMP JUMPDEST SWAP3 POP POP PUSH1 0x20 PUSH2 0x235 DUP6 DUP3 DUP7 ADD PUSH2 0x1EE JUMP JUMPDEST SWAP2 POP POP SWAP3 POP SWAP3 SWAP1 POP JUMP JUMPDEST PUSH1 0x0 PUSH2 0x24C PUSH1 0x15 DUP4 PUSH2 0x329 JUMP JUMPDEST SWAP2 POP PUSH32 0x5375627472616374696F6E20756E646572666C6F770000000000000000000000 PUSH1 0x0 DUP4 ADD MSTORE PUSH1 0x20 DUP3 ADD SWAP1 POP SWAP2 SWAP1 POP JUMP JUMPDEST PUSH1 0x0 PUSH2 0x28C PUSH1 0x10 DUP4 PUSH2 0x329 JUMP JUMPDEST SWAP2 POP PUSH32 0x4469766973696F6E206279207A65726F00000000000000000000000000000000 PUSH1 0x0 DUP4 ADD MSTORE PUSH1 0x20 DUP3 ADD SWAP1 POP SWAP2 SWAP1 POP JUMP JUMPDEST PUSH2 0x2C8 DUP2 PUSH2 0x44F JUMP JUMPDEST DUP3 MSTORE POP POP JUMP JUMPDEST PUSH1 0x0 PUSH1 0x20 DUP3 ADD SWAP1 POP DUP2 DUP2 SUB PUSH1 0x0 DUP4 ADD MSTORE PUSH2 0x2E7 DUP2 PUSH2 0x23F JUMP JUMPDEST SWAP1 POP SWAP2 SWAP1 POP JUMP JUMPDEST PUSH1 0x0 PUSH1 0x20 DUP3 ADD SWAP1 POP DUP2 DUP2 SUB PUSH1 0x0 DUP4 ADD MSTORE PUSH2 0x307 DUP2 PUSH2 0x27F JUMP JUMPDEST SWAP1 POP SWAP2 SWAP1 POP JUMP JUMPDEST PUSH1 0x0 PUSH1 0x20 DUP3 ADD SWAP1 POP PUSH2 0x323 PUSH1 0x0 DUP4 ADD DUP5 PUSH2 0x2BF JUMP JUMPDEST SWAP3 SWAP2 POP POP JUMP JUMPDEST PUSH1 0x0 DUP3 DUP3 MSTORE PUSH1 0x20 DUP3 ADD SWAP1 POP SWAP3 SWAP2 POP POP JUMP JUMPDEST PUSH1 0x0 PUSH2 0x345 DUP3 PUSH2 0x44F JUMP JUMPDEST SWAP2 POP PUSH2 0x350 DUP4 PUSH2 0x44F JUMP JUMPDEST SWAP3 POP DUP3 PUSH32 0xFFFFFFFFFFFFFFFFFFFFFFFFFFFFFFFFFFFFFFFFFFFFFFFFFFFFFFFFFFFFFFFF SUB DUP3 GT ISZERO PUSH2 0x385 JUMPI PUSH2 0x384 PUSH2 0x459 JUMP JUMPDEST JUMPDEST DUP3 DUP3 ADD SWAP1 POP SWAP3 SWAP2 POP POP JUMP JUMPDEST PUSH1 0x0 PUSH2 0x39B DUP3 PUSH2 0x44F JUMP JUMPDEST SWAP2 POP PUSH2 0x3A6 DUP4 PUSH2 0x44F JUMP JUMPDEST SWAP3 POP DUP3 PUSH2 0x3B6 JUMPI PUSH2 0x3B5 PUSH2 0x488 JUMP JUMPDEST JUMPDEST DUP3 DUP3 DIV SWAP1 POP SWAP3 SWAP2 POP POP JUMP JUMPDEST PUSH1 0x0 PUSH2 0x3CC DUP3 PUSH2 0x44F JUMP JUMPDEST SWAP2 POP PUSH2 0x3D7 DUP4 PUSH2 0x44F JUMP JUMPDEST SWAP3 POP DUP2 PUSH32 0xFFFFFFFFFFFFFFFFFFFFFFFFFFFFFFFFFFFFFFFFFFFFFFFFFFFFFFFFFFFFFFFF DIV DUP4 GT DUP3 ISZERO ISZERO AND ISZERO PUSH2 0x410 JUMPI PUSH2 0x40F PUSH2 0x459 JUMP JUMPDEST JUMPDEST DUP3 DUP3 MUL SWAP1 POP SWAP3 SWAP2 POP POP JUMP JUMPDEST PUSH1 0x0 PUSH2 0x426 DUP3 PUSH2 0x44F JUMP JUMPDEST SWAP2 POP PUSH2 0x431 DUP4 PUSH2 0x44F JUMP JUMPDEST SWAP3 POP DUP3 DUP3 LT ISZERO PUSH2 0x444 JUMPI PUSH2 0x443 PUSH2 0x459 JUMP JUMPDEST JUMPDEST DUP3 DUP3 SUB SWAP1 POP SWAP3 SWAP2 POP POP JUMP JUMPDEST PUSH1 0x0 DUP2 SWAP1 POP SWAP2 SWAP1 POP JUMP JUMPDEST PUSH32 0x4E487B7100000000000000000000000000000000000000000000000000000000 PUSH1 0x0 MSTORE PUSH1 0x11 PUSH1 0x4 MSTORE PUSH1 0x24 PUSH1 0x0 REVERT JUMPDEST PUSH32 0x4E487B7100000000000000000000000000000000000000000000000000000000 PUSH1 0x0 MSTORE PUSH1 0x12 PUSH1 0x4 MSTORE PUSH1 0x24 PUSH1 0x0 REVERT JUMPDEST PUSH2 0x4C0 DUP2 PUSH2 0x44F JUMP JUMPDEST DUP2 EQ PUSH2 0x4CB JUMPI PUSH1 0x0 DUP1 REVERT JUMPDEST POP JUMP INVALID LOG2 PUSH5 0x6970667358 0x22 SLT KECCAK256 0xB5 SWAP3 CREATE2 0xD4 BLOCKHASH SWAP16 0xBC DUP9 SWAP12 0xED OR PUSH10 0x344ADAFCDEF36A894559 MULMOD 0xA6 ORIGIN SELFDESTRUCT CHAINID ADD 0xD0 JUMPI 0x22 0xBD PUSH5 0x736F6C6343 STOP ADDMOD STOP STOP CALLER "},"methodIdentifiers":{"add(uint256,uint256)":"771602f7","divide(uint256,uint256)":"f88e9fbf","multiply(uint256,uint256)":"165c4a16","subtract(uint256,uint256)":"3ef5e445"}}}}}