{
  "_format": "hh-sol-artifact-1",
  "contractName": "Calculator",
  "sourceName": "contracts/Calculator.sol",
  "abi": [
    {
      "inputs": [
        {
          "internalType": "uint256",
          "name": "a",
          "type": "uint256"
        },
        {
          "internalType": "uint256",
          "name": "b",
          "type": "uint256"
        }
      ],
      "name": "add",
      "outputs": [
        {
          "internalType": "uint256",
          "name": "",
          "type": "uint256"
        }
      ],
      "stateMutability": "pure",
      "type": "function"
    },
    {
      "inputs": [
        {
          "internalType": "uint256",
          "name": "a",
          "type": "uint256"
        },
        {
          "internalType": "uint256",
          "name": "b",
          "type": "uint256"
        }
      ],
      "name": "divide",
      "outputs": [
        {
          "internalType": "uint256",
          "name": "",
          "type": "uint256"
        }
      ],
      "stateMutability": "pure",
      "type": "function"
    },
    {
      "inputs": [
        {
          "internalType": "uint256",
          "name": "a",
          "type": "uint256"
        },
        {
          "internalType": "uint256",
          "name": "b",
          "type": "uint256"
        }
      ],
      "name": "multiply",
      "outputs": [
        {
          "internalType": "uint256",
          "name": "",
          "type": "uint256"
        }
      ],
      "stateMutability": "pure",
      "type": "function"
    },
    {
      "inputs": [
        {
          "internalType": "uint256",
          "name": "a",
          "type": "uint256"
        },
        {
          "internalType": "uint256",
          "name": "b",
          "type": "uint256"
        }
      ],
      "name": "subtract",
      "outputs": [
        {
          "internalType": "uint256",
          "name": "",
          "type": "uint256"
        }
      ],
      "stateMutability": "pure",
      "type": "function"
    }
  ],
  "bytecode": "0x608060405234801561001057600080fd5b50610504806100206000396000f3fe608060405234801561001057600080fd5b506004361061004c5760003560e01c8063165c4a16146100515780633ef5e44514610081578063771602f7146100b1578063f88e9fbf146100e1575b600080fd5b61006b60048036038101906100669190610203565b610111565b604051610078919061030e565b60405180910390f35b61009b60048036038101906100969190610203565b610127565b6040516100a8919061030e565b60405180910390f35b6100cb60048036038101906100c69190610203565b610180565b6040516100d8919061030e565b60405180910390f35b6100fb60048036038101906100f69190610203565b610196565b604051610108919061030e565b60405180910390f35b6000818361011f91906103c1565b905092915050565b60008282111561016c576040517f08c379a0000000000000000000000000000000000000000000000000000000008152600401610163906102ce565b60405180910390fd5b8183610178919061041b565b905092915050565b6000818361018e919061033a565b905092915050565b60008082116101da576040517f08c379a00000000000000000000000000000000000000000000000000000000081526004016101d1906102ee565b60405180910390fd5b81836101e69190610390565b905092915050565b6000813590506101fd816104b7565b92915050565b6000806040838503121561021657600080fd5b6000610224858286016101ee565b9250506020610235858286016101ee565b9150509250929050565b600061024c601583610329565b91507f5375627472616374696f6e20756e646572666c6f7700000000000000000000006000830152602082019050919050565b600061028c601083610329565b91507f4469766973696f6e206279207a65726f000000000000000000000000000000006000830152602082019050919050565b6102c88161044f565b82525050565b600060208201905081810360008301526102e78161023f565b9050919050565b600060208201905081810360008301526103078161027f565b9050919050565b600060208201905061032360008301846102bf565b92915050565b600082825260208201905092915050565b60006103458261044f565b91506103508361044f565b9250827fffffffffffffffffffffffffffffffffffffffffffffffffffffffffffffffff0382111561038557610384610459565b5b828201905092915050565b600061039b8261044f565b91506103a68361044f565b9250826103b6576103b5610488565b5b828204905092915050565b60006103cc8261044f565b91506103d78361044f565b9250817fffffffffffffffffffffffffffffffffffffffffffffffffffffffffffffffff04831182151516156104105761040f610459565b5b828202905092915050565b60006104268261044f565b91506104318361044f565b92508282101561044457610443610459565b5b828203905092915050565b6000819050919050565b7f4e487b7100000000000000000000000000000000000000000000000000000000600052601160045260246000fd5b7f4e487b7100000000000000000000000000000000000000000000000000000000600052601260045260246000fd5b6104c08161044f565b81146104cb57600080fd5b5056fea2646970667358221220b592f5d4409fbc889bed1769344adafcdef36a89455909a632ff4601d05722bd64736f6c63430008000033",
  "linkReferences": {},
  "deployedLinkReferences": {}
}