{
  "_format": "hh-sol-artifact-1",
  "contractName": "Calculator",
  "sourceName": "contracts/Calculator.sol",
  "abi": [
    {
      "anonymous": false,
      "inputs": [
        {
          "indexed": false,
          "internalType": "int256",
          "name": "result",
          "type": "int256"
        }
      ],
      "name": "CalculationResult",
      "type": "event"
    },
    {
      "inputs": [
        {
          "internalType": "int256",
          "name": "a",
          "type": "int256"
        },
        {
          "internalType": "int256",
          "name": "b",
          "type": "int256"
        }
      ],
      "name": "add",
      "outputs": [
        {
          "internalType": "int256",
          "name": "",
          "type": "int256"
        }
      ],
      "stateMutability": "nonpayable",
      "type": "function"
    },
    {
      "inputs": [
        {
          "internalType": "int256",
          "name": "a",
          "type": "int256"
        },
        {
          "internalType": "int256",
          "name": "b",
          "type": "int256"
        }
      ],
      "name": "divide",
      "outputs": [
        {
          "internalType": "int256",
          "name": "",
          "type": "int256"
        }
      ],
      "stateMutability": "nonpayable",
      "type": "function"
    },
    {
      "inputs": [
        {
          "internalType": "int256",
          "name": "a",
          "type": "int256"
        },
        {
          "internalType": "int256",
          "name": "b",
          "type": "int256"
        }
      ],
      "name": "multiply",
      "outputs": [
        {
          "internalType": "int256",
          "name": "",
          "type": "int256"
        }
      ],
      "stateMutability": "nonpayable",
      "type": "function"
    },
    {
      "inputs": [
        {
          "internalType": "int256",
          "name": "a",
          "type": "int256"
        },
        {
          "internalType": "int256",
          "name": "b",
          "type": "int256"
        }
      ],
      "name": "subtract",
      "outputs": [
        {
          "internalType": "int256",
          "name": "",
          "type": "int256"
        }
      ],
      "stateMutability": "nonpayable",
      "type": "function"
    }
  ],
  "bytecode": "0x608060405234801561001057600080fd5b506106e7806100206000396000f3fe608060405234801561001057600080fd5b506004361061004c5760003560e01c80633c4308a814610051578063a5f3c23b14610081578063b93ea812146100b1578063f5984236146100e1575b600080fd5b61006b600480360381019061006691906102b2565b610111565b604051610078919061033d565b60405180910390f35b61009b600480360381019061009691906102b2565b610163565b6040516100a8919061033d565b60405180910390f35b6100cb60048036038101906100c691906102b2565b6101b5565b6040516100d8919061033d565b60405180910390f35b6100fb60048036038101906100f691906102b2565b610207565b604051610108919061033d565b60405180910390f35b60008082846101209190610487565b90507ff2d6c774b080911e1275ca033bfb31791e1e7220f0a3b4b646be5b9e1c3d7bc781604051610151919061033d565b60405180910390a18091505092915050565b60008082846101729190610389565b90507ff2d6c774b080911e1275ca033bfb31791e1e7220f0a3b4b646be5b9e1c3d7bc7816040516101a3919061033d565b60405180910390a18091505092915050565b60008082846101c4919061059e565b90507ff2d6c774b080911e1275ca033bfb31791e1e7220f0a3b4b646be5b9e1c3d7bc7816040516101f5919061033d565b60405180910390a18091505092915050565b60008082141561024c576040517f08c379a000000000000000000000000000000000000000000000000000000000815260040161024390610358565b60405180910390fd5b6000828461025a919061041d565b90507ff2d6c774b080911e1275ca033bfb31791e1e7220f0a3b4b646be5b9e1c3d7bc78160405161028b919061033d565b60405180910390a18091505092915050565b6000813590506102ac8161069a565b92915050565b600080604083850312156102c557600080fd5b60006102d38582860161029d565b92505060206102e48582860161029d565b9150509250929050565b6102f781610632565b82525050565b600061030a601083610378565b91507f4469766973696f6e206279207a65726f000000000000000000000000000000006000830152602082019050919050565b600060208201905061035260008301846102ee565b92915050565b60006020820190508181036000830152610371816102fd565b9050919050565b600082825260208201905092915050565b600061039482610632565b915061039f83610632565b9250817f7fffffffffffffffffffffffffffffffffffffffffffffffffffffffffffffff038313600083121516156103da576103d961063c565b5b817f80000000000000000000000000000000000000000000000000000000000000000383126000831216156104125761041161063c565b5b828201905092915050565b600061042882610632565b915061043383610632565b9250826104435761044261066b565b5b600160000383147f80000000000000000000000000000000000000000000000000000000000000008314161561047c5761047b61063c565b5b828205905092915050565b600061049282610632565b915061049d83610632565b9250827f7fffffffffffffffffffffffffffffffffffffffffffffffffffffffffffffff04821160008413600084131616156104dc576104db61063c565b5b817f800000000000000000000000000000000000000000000000000000000000000005831260008412600084131616156105195761051861063c565b5b827f800000000000000000000000000000000000000000000000000000000000000005821260008413600084121616156105565761055561063c565b5b827f7fffffffffffffffffffffffffffffffffffffffffffffffffffffffffffffff05821260008412600084121616156105935761059261063c565b5b828202905092915050565b60006105a982610632565b91506105b483610632565b9250827f8000000000000000000000000000000000000000000000000000000000000000018212600084121516156105ef576105ee61063c565b5b827f7fffffffffffffffffffffffffffffffffffffffffffffffffffffffffffffff0182136000841216156106275761062661063c565b5b828203905092915050565b6000819050919050565b7f4e487b7100000000000000000000000000000000000000000000000000000000600052601160045260246000fd5b7f4e487b7100000000000000000000000000000000000000000000000000000000600052601260045260246000fd5b6106a381610632565b81146106ae57600080fd5b5056fea2646970667358221220f2ffad4c3730c5b1b90fe76763f2f2a7957d3b58923f70d29b9bc583ccd3c5ef64736f6c63430008000033",
  "linkReferences": {},
  "deployedLinkReferences": {}
}